{
  "contractName": "KeyRegistry",
  "abi": [
    {
      "constant": true,
      "inputs": [
        {
          "name": "",
          "type": "uint256"
        }
      ],
      "name": "certificates",
      "outputs": [
        {
          "name": "creator",
          "type": "address"
        },
        {
          "name": "emailAddress",
          "type": "bytes32"
        },
        {
          "name": "pgpKey",
          "type": "bytes32"
        },
        {
          "name": "creationBlock",
          "type": "uint256"
        }
      ],
      "payable": false,
      "stateMutability": "view",
      "type": "function"
    },
    {
      "anonymous": false,
      "inputs": [
        {
          "indexed": true,
          "name": "requester",
          "type": "bytes32"
        },
        {
          "indexed": true,
          "name": "validator",
          "type": "address"
        }
      ],
      "name": "RequestValidation",
      "type": "event"
    },
    {
      "constant": false,
      "inputs": [
        {
          "name": "_emailAddress",
          "type": "bytes32"
        },
        {
          "name": "_pgpKey",
          "type": "bytes32"
        }
      ],
      "name": "join",
      "outputs": [],
      "payable": false,
      "stateMutability": "nonpayable",
      "type": "function"
    },
    {
      "constant": false,
      "inputs": [
        {
          "name": "requester",
          "type": "uint256"
        }
      ],
      "name": "validate",
      "outputs": [],
      "payable": false,
      "stateMutability": "nonpayable",
      "type": "function"
    },
    {
      "constant": false,
      "inputs": [
        {
          "name": "requester",
          "type": "bytes32"
        }
      ],
      "name": "getKey",
      "outputs": [
        {
          "name": "",
          "type": "bytes32"
        }
      ],
      "payable": false,
      "stateMutability": "nonpayable",
      "type": "function"
    }
  ],
  "bytecode": "0x608060405234801561001057600080fd5b50610601806100206000396000f300608060405260043610610062576000357c0100000000000000000000000000000000000000000000000000000000900463ffffffff16806312aaac70146100675780635b419a65146100b4578063663b3e22146100f3578063ce4d01a314610185575b600080fd5b34801561007357600080fd5b5061009660048036038101908080356000191690602001909291905050506101b2565b60405180826000191660001916815260200191505060405180910390f35b3480156100c057600080fd5b506100f1600480360381019080803560001916906020019092919080356000191690602001909291905050506101f6565b005b3480156100ff57600080fd5b5061011e6004803603810190808035906020019092919050505061045c565b604051808573ffffffffffffffffffffffffffffffffffffffff1673ffffffffffffffffffffffffffffffffffffffff1681526020018460001916600019168152602001836000191660001916815260200182815260200194505050505060405180910390f35b34801561019157600080fd5b506101b0600480360381019080803590602001909291905050506104bb565b005b600080600160008460001916600019168152602001908152602001600020548154811015156101dd57fe5b9060005260206000209060060201600201549050919050565b60008060008060006001600088600019166000191681526020019081526020016000205414151561022657600080fd5b6000805480919060010161023a91906104be565b935060008481548110151561024b57fe5b9060005260206000209060060201925085836001018160001916905550338360000160006101000a81548173ffffffffffffffffffffffffffffffffffffffff021916908373ffffffffffffffffffffffffffffffffffffffff160217905550848360020181600019169055508360016000886000191660001916815260200190815260200160002081905550601e600080549050101561033457600091505b600160008054905003821015610333578082908060018154018082558091505090600182039060005260206000200160009091929091909150555081806001019250506102eb565b5b600091505b8080549050821015610454576000818381548110151561035557fe5b906000526020600020015481548110151561036c57fe5b9060005260206000209060060201600401829080600181540180825580915050906001820390600052602060002001600090919290919091505550600081838154811015156103b757fe5b90600052602060002001548154811015156103ce57fe5b906000526020600020906006020160000160009054906101000a900473ffffffffffffffffffffffffffffffffffffffff1673ffffffffffffffffffffffffffffffffffffffff1686600019167fc696fe186805efc66f7d2e0a4b2299b93ecf4714c266cb4f25a7f31dba9fe77d60405160405180910390a38180600101925050610339565b505050505050565b60008181548110151561046b57fe5b90600052602060002090600602016000915090508060000160009054906101000a900473ffffffffffffffffffffffffffffffffffffffff16908060010154908060020154908060050154905084565b50565b8154818355818111156104eb576006028160060283600052602060002091820191016104ea91906104f0565b5b505050565b61056b91905b8082111561056757600080820160006101000a81549073ffffffffffffffffffffffffffffffffffffffff021916905560018201600090556002820160009055600382016000610546919061056e565b600482016000610556919061058f565b6005820160009055506006016104f6565b5090565b90565b508054600082559060005260206000209081019061058c91906105b0565b50565b50805460008255906000526020600020908101906105ad91906105b0565b50565b6105d291905b808211156105ce5760008160009055506001016105b6565b5090565b905600a165627a7a72305820efe47c5d6baecf6b2f399deaff3667324ea66a4bbcc6290198f321ed33c48c6a0029",
  "source": "pragma solidity ^0.4.4;\n\nimport \"@aragon/os/contracts/apps/AragonApp.sol\";\n\n\ncontract KeyRegistry {\n\n  struct Certificate {\n      address creator;\n      bytes32 emailAddress;\n\t\t\tbytes32 pgpKey;\n\t\t\taddress[] validators;\n\t\t\tuint256[] requestedValidations;\n\t\t\tuint256 creationBlock;\n  }\n\n  Certificate[] public certificates;\n\tmapping (bytes32 => uint256) addressIndex;\n\n  event RequestValidation(bytes32 indexed requester, address indexed validator);\n\n\n  function join(bytes32 _emailAddress, bytes32 _pgpKey) public {\n\t\t\trequire(addressIndex[_emailAddress] == 0);\n\t\t  uint256 index = certificates.length++;\n      Certificate storage certificate = certificates[index];\n\n\t\t\tcertificate.emailAddress = _emailAddress;\n\t\t\tcertificate.creator = msg.sender;\n\t\t\tcertificate.pgpKey = _pgpKey;\n\t\t\t//certificate.creationBlock = getBlockNumber();\n\t\t\taddressIndex[_emailAddress] = index;\n\n\n\t\t\tuint i;\n\t\t\tuint[] indecies;\n\t\t\t// create list of random validators\n\t\t\tif(certificates.length < 30){\n\t\t\t\tfor(i=0;i<certificates.length-1;i++){\n\t\t\t\t\tindecies.push(i);\n\t\t\t\t}\n\t\t\t}\n\n\n\t\t\tfor(i=0;i<indecies.length;i++){\n\t\t\t\tcertificates[indecies[i]].requestedValidations.push(i);\n\t\t\t\temit RequestValidation(_emailAddress, certificates[indecies[i]].creator);\n\t\t\t}\n  }\n\n\tfunction validate(uint256 requester) public {\n\n\t}\n\n\tfunction getKey(bytes32 requester) public returns (bytes32) {\n\t\treturn certificates[addressIndex[requester]].pgpKey;\n\t}\n\n}\n",
  "sourcePath": "/home/jeremy/hackathon/contracts/KeyRegistry.sol",
  "compiler": {
    "name": "solc",
    "version": "0.4.24+commit.e67f0147.Emscripten.clang"
  },
  "schemaVersion": "2.0.1",
  "updatedAt": "2018-06-24T02:32:05.508Z"
}