{
  "contractName": "KeyRegistry",
  "abi": [
    {
      "constant": true,
      "inputs": [
        {
          "name": "",
          "type": "uint256"
        }
      ],
      "name": "certificates",
      "outputs": [
        {
          "name": "creator",
          "type": "address"
        },
        {
          "name": "emailAddress",
          "type": "bytes32"
        },
        {
          "name": "pgpKey",
          "type": "bytes32"
        }
      ],
      "payable": false,
      "stateMutability": "view",
      "type": "function"
    },
    {
      "anonymous": false,
      "inputs": [
        {
          "indexed": true,
          "name": "requester",
          "type": "bytes32"
        },
        {
          "indexed": true,
          "name": "validator",
          "type": "address"
        }
      ],
      "name": "RequestValidation",
      "type": "event"
    },
    {
      "constant": false,
      "inputs": [
        {
          "name": "_emailAddress",
          "type": "bytes32"
        },
        {
          "name": "_pgpKey",
          "type": "bytes32"
        }
      ],
      "name": "join",
      "outputs": [],
      "payable": false,
      "stateMutability": "nonpayable",
      "type": "function"
    },
    {
      "constant": false,
      "inputs": [
        {
          "name": "requester",
          "type": "uint256"
        }
      ],
      "name": "validate",
      "outputs": [],
      "payable": false,
      "stateMutability": "nonpayable",
      "type": "function"
    },
    {
      "constant": true,
      "inputs": [
        {
          "name": "requester",
          "type": "bytes32"
        }
      ],
      "name": "getKey",
      "outputs": [
        {
          "name": "",
          "type": "bytes32"
        }
      ],
      "payable": false,
      "stateMutability": "view",
      "type": "function"
    }
  ],
  "bytecode": "0x608060405234801561001057600080fd5b50610a08806100206000396000f300608060405260043610610062576000357c0100000000000000000000000000000000000000000000000000000000900463ffffffff16806312aaac70146100675780635b419a65146100b4578063663b3e22146100f3578063ce4d01a31461017e575b600080fd5b34801561007357600080fd5b5061009660048036038101908080356000191690602001909291905050506101ab565b60405180826000191660001916815260200191505060405180910390f35b3480156100c057600080fd5b506100f1600480360381019080803560001916906020019092919080356000191690602001909291905050506101ef565b005b3480156100ff57600080fd5b5061011e600480360381019080803590602001909291905050506105d3565b604051808473ffffffffffffffffffffffffffffffffffffffff1673ffffffffffffffffffffffffffffffffffffffff16815260200183600019166000191681526020018260001916600019168152602001935050505060405180910390f35b34801561018a57600080fd5b506101a96004803603810190808035906020019092919050505061062c565b005b600080600160008460001916600019168152602001908152602001600020548154811015156101d657fe5b9060005260206000209060050201600201549050919050565b60008060008060006001600088600019166000191681526020019081526020016000205414151561021f57600080fd5b601e600080549050101561027f57600093505b60016000805490500384101561027a57828490806001815401808255809150509060018203906000526020600020016000909192909190915055508380600101945050610232565b6102f5565b600093505b601e8410156102f4578260008054905085886001900401604051808281526020019150506040518091039020600190048115156102bd57fe5b0690806001815401808255809150509060018203906000526020600020016000909192909190915055508380600101945050610284565b5b6000805480919060010161030991906108cd565b915060008281548110151561031a57fe5b9060005260206000209060050201905085816001018160001916905550338160000160006101000a81548173ffffffffffffffffffffffffffffffffffffffff021916908373ffffffffffffffffffffffffffffffffffffffff16021790555084816002018160001916905550816001600088600019166000191681526020019081526020016000208190555081600260003373ffffffffffffffffffffffffffffffffffffffff1673ffffffffffffffffffffffffffffffffffffffff16815260200190815260200160002081905550600093505b82805490508410156105cb576000838581548110151561040c57fe5b906000526020600020015481548110151561042357fe5b9060005260206000209060050201600401849080600181540180825580915050906001820390600052602060002001600090919290919091505550806003016000848681548110151561047257fe5b906000526020600020015481548110151561048957fe5b906000526020600020906005020160000160009054906101000a900473ffffffffffffffffffffffffffffffffffffffff1690806001815401808255809150509060018203906000526020600020016000909192909190916101000a81548173ffffffffffffffffffffffffffffffffffffffff021916908373ffffffffffffffffffffffffffffffffffffffff160217905550506000838581548110151561052e57fe5b906000526020600020015481548110151561054557fe5b906000526020600020906005020160000160009054906101000a900473ffffffffffffffffffffffffffffffffffffffff1673ffffffffffffffffffffffffffffffffffffffff1686600019167fc696fe186805efc66f7d2e0a4b2299b93ecf4714c266cb4f25a7f31dba9fe77d60405160405180910390a383806001019450506103f0565b505050505050565b6000818154811015156105e257fe5b90600052602060002090600502016000915090508060000160009054906101000a900473ffffffffffffffffffffffffffffffffffffffff16908060010154908060020154905083565b6000806000808481548110151561063f57fe5b906000526020600020906005020160030192506000600260003373ffffffffffffffffffffffffffffffffffffffff1673ffffffffffffffffffffffffffffffffffffffff168152602001908152602001600020548154811015156106a057fe5b90600052602060002090600502016004019150600090505b828054905081101561082d573373ffffffffffffffffffffffffffffffffffffffff1683828154811015156106e957fe5b9060005260206000200160009054906101000a900473ffffffffffffffffffffffffffffffffffffffff1673ffffffffffffffffffffffffffffffffffffffff1614156108205782838054905081548110151561074257fe5b9060005260206000200160009054906101000a900473ffffffffffffffffffffffffffffffffffffffff16838281548110151561077b57fe5b9060005260206000200160006101000a81548173ffffffffffffffffffffffffffffffffffffffff021916908373ffffffffffffffffffffffffffffffffffffffff16021790555060008384805490508154811015156107d757fe5b9060005260206000200160006101000a81548173ffffffffffffffffffffffffffffffffffffffff021916908373ffffffffffffffffffffffffffffffffffffffff1602179055505b80806001019150506106b8565b600090505b81805490508110156108c75783828281548110151561084d57fe5b906000526020600020015414156108ba5781828054905081548110151561087057fe5b9060005260206000200154828281548110151561088957fe5b906000526020600020018190555060008283805490508154811015156108ab57fe5b90600052602060002001819055505b8080600101915050610832565b50505050565b8154818355818111156108fa576005028160050283600052602060002091820191016108f991906108ff565b5b505050565b61097291905b8082111561096e57600080820160006101000a81549073ffffffffffffffffffffffffffffffffffffffff0219169055600182016000905560028201600090556003820160006109559190610975565b6004820160006109659190610996565b50600501610905565b5090565b90565b508054600082559060005260206000209081019061099391906109b7565b50565b50805460008255906000526020600020908101906109b491906109b7565b50565b6109d991905b808211156109d55760008160009055506001016109bd565b5090565b905600a165627a7a723058206c1bf778d1693f767e733e5b0c82aae5fe64339c6ffb4ddc70682950fc3f05670029",
  "source": "pragma solidity ^0.4.4;\n\n\ncontract KeyRegistry {\n\n  struct Certificate {\n      address creator;\n      bytes32 emailAddress;\n\t\t\tbytes32 pgpKey;\n\t\t\taddress[] validators;\n\t\t\tuint256[] requestedValidations;\n\t\t\t//uint256 creationBlock;\n  }\n\n  Certificate[] public certificates;\n\n\tmapping (bytes32 => uint256) addressIndex;\n\tmapping (address => uint256) creatorIndex;\n\n  event RequestValidation(bytes32 indexed requester, address indexed validator);\n\n\n  function join(bytes32 _emailAddress, bytes32 _pgpKey) public {\n\t\t\trequire(addressIndex[_emailAddress] == 0);\n\n\t\t\tuint256 i;\n\t\t\tuint256[] storage indecies;\n\t\t\t// create list of random validators\n\t\t\tif(certificates.length < 30){\n\t\t\t\tfor(i=0;i<certificates.length-1;i++){\n\t\t\t\t\tindecies.push(i);\n\t\t\t\t}\n\t\t\t}else{\n\t\t\t\tfor(i=0;i<30;i++){\n\t\t\t\t\tindecies.push(uint256(keccak256(uint256(_emailAddress)+i))%certificates.length);\n\t\t\t\t}\n\t\t\t}\n\n\n\t\t  uint256 index = certificates.length++;\n      Certificate storage certificate = certificates[index];\n\n\t\t\tcertificate.emailAddress = _emailAddress;\n\t\t\tcertificate.creator = msg.sender;\n\t\t\tcertificate.pgpKey = _pgpKey;\n\t\t\t//certificate.creationBlock = getBlockNumber();\n\t\t\taddressIndex[_emailAddress] = index;\n\t\t\tcreatorIndex[msg.sender] = index;\n\n\n\n\t\t\tfor(i=0;i<indecies.length;i++){\n\t\t\t\tcertificates[indecies[i]].requestedValidations.push(i);\n\t\t\t\tcertificate.validators.push(certificates[indecies[i]].creator);\n\t\t\t\temit RequestValidation(_emailAddress, certificates[indecies[i]].creator);\n\t\t\t}\n  }\n\n\tfunction validate(uint256 requester) public {\n\t\taddress[] storage validatorList = certificates[requester].validators;\n\t\tuint256[] storage requestedValidationsList = certificates[creatorIndex[msg.sender]].requestedValidations;\n\t\tfor(uint i = 0; i < validatorList.length;i++){\n\t\t\tif(validatorList[i]==msg.sender){\n\t\t\t\tvalidatorList[i] = validatorList[validatorList.length];\n\t\t\t\tvalidatorList[validatorList.length] = address(0);\n\t\t\t}\n\t\t}\n\t\tfor(i = 0; i < requestedValidationsList.length;i++){\n\t\t\tif(requestedValidationsList[i]==requester){\n\t\t\t\trequestedValidationsList[i] = requestedValidationsList[requestedValidationsList.length];\n\t\t\t\trequestedValidationsList[requestedValidationsList.length] = 0;\n\t\t\t}\n\t\t}\n\t}\n\n\tfunction getKey(bytes32 requester) public view returns (bytes32) {\n\t\treturn certificates[addressIndex[requester]].pgpKey;\n\t}\n\n}\n",
  "sourcePath": "/home/jeremy/truffle-hackathon/contracts/KeyRegistry.sol",
  "compiler": {
    "name": "solc",
    "version": "0.4.24+commit.e67f0147.Emscripten.clang"
  },
  "schemaVersion": "2.0.1",
  "updatedAt": "2018-06-24T18:26:32.164Z"
}